{
  "contractName": "Dex",
  "abi": [
    {
      "inputs": [],
      "stateMutability": "nonpayable",
      "type": "constructor"
    },
    {
      "anonymous": false,
      "inputs": [
        {
          "indexed": false,
          "internalType": "uint256",
          "name": "tradeId",
          "type": "uint256"
        },
        {
          "indexed": false,
          "internalType": "uint256",
          "name": "orderId",
          "type": "uint256"
        },
        {
          "indexed": true,
          "internalType": "bytes32",
          "name": "ticker",
          "type": "bytes32"
        },
        {
          "indexed": true,
          "internalType": "address",
          "name": "trader1",
          "type": "address"
        },
        {
          "indexed": true,
          "internalType": "address",
          "name": "trader2",
          "type": "address"
        },
        {
          "indexed": false,
          "internalType": "uint256",
          "name": "amount",
          "type": "uint256"
        },
        {
          "indexed": false,
          "internalType": "uint256",
          "name": "price",
          "type": "uint256"
        },
        {
          "indexed": false,
          "internalType": "uint256",
          "name": "date",
          "type": "uint256"
        }
      ],
      "name": "NewTrade",
      "type": "event"
    },
    {
      "inputs": [],
      "name": "admin",
      "outputs": [
        {
          "internalType": "address",
          "name": "",
          "type": "address"
        }
      ],
      "stateMutability": "view",
      "type": "function",
      "constant": true
    },
    {
      "inputs": [],
      "name": "nextOrderId",
      "outputs": [
        {
          "internalType": "uint256",
          "name": "",
          "type": "uint256"
        }
      ],
      "stateMutability": "view",
      "type": "function",
      "constant": true
    },
    {
      "inputs": [],
      "name": "nextTradeId",
      "outputs": [
        {
          "internalType": "uint256",
          "name": "",
          "type": "uint256"
        }
      ],
      "stateMutability": "view",
      "type": "function",
      "constant": true
    },
    {
      "inputs": [
        {
          "internalType": "bytes32",
          "name": "",
          "type": "bytes32"
        },
        {
          "internalType": "uint256",
          "name": "",
          "type": "uint256"
        },
        {
          "internalType": "uint256",
          "name": "",
          "type": "uint256"
        }
      ],
      "name": "orderBook",
      "outputs": [
        {
          "internalType": "uint256",
          "name": "id",
          "type": "uint256"
        },
        {
          "internalType": "address",
          "name": "trader",
          "type": "address"
        },
        {
          "internalType": "enum Dex.Side",
          "name": "side",
          "type": "uint8"
        },
        {
          "internalType": "bytes32",
          "name": "ticker",
          "type": "bytes32"
        },
        {
          "internalType": "uint256",
          "name": "amount",
          "type": "uint256"
        },
        {
          "internalType": "uint256",
          "name": "filled",
          "type": "uint256"
        },
        {
          "internalType": "uint256",
          "name": "price",
          "type": "uint256"
        },
        {
          "internalType": "uint256",
          "name": "date",
          "type": "uint256"
        }
      ],
      "stateMutability": "view",
      "type": "function",
      "constant": true
    },
    {
      "inputs": [
        {
          "internalType": "uint256",
          "name": "",
          "type": "uint256"
        }
      ],
      "name": "tokenList",
      "outputs": [
        {
          "internalType": "bytes32",
          "name": "",
          "type": "bytes32"
        }
      ],
      "stateMutability": "view",
      "type": "function",
      "constant": true
    },
    {
      "inputs": [
        {
          "internalType": "bytes32",
          "name": "",
          "type": "bytes32"
        }
      ],
      "name": "tokens",
      "outputs": [
        {
          "internalType": "bytes32",
          "name": "ticker",
          "type": "bytes32"
        },
        {
          "internalType": "address",
          "name": "tokenAddress",
          "type": "address"
        }
      ],
      "stateMutability": "view",
      "type": "function",
      "constant": true
    },
    {
      "inputs": [
        {
          "internalType": "address",
          "name": "",
          "type": "address"
        },
        {
          "internalType": "bytes32",
          "name": "",
          "type": "bytes32"
        }
      ],
      "name": "traderBalances",
      "outputs": [
        {
          "internalType": "uint256",
          "name": "",
          "type": "uint256"
        }
      ],
      "stateMutability": "view",
      "type": "function",
      "constant": true
    },
    {
      "inputs": [
        {
          "internalType": "bytes32",
          "name": "ticker",
          "type": "bytes32"
        },
        {
          "internalType": "enum Dex.Side",
          "name": "side",
          "type": "uint8"
        }
      ],
      "name": "getOrders",
      "outputs": [
        {
          "components": [
            {
              "internalType": "uint256",
              "name": "id",
              "type": "uint256"
            },
            {
              "internalType": "address",
              "name": "trader",
              "type": "address"
            },
            {
              "internalType": "enum Dex.Side",
              "name": "side",
              "type": "uint8"
            },
            {
              "internalType": "bytes32",
              "name": "ticker",
              "type": "bytes32"
            },
            {
              "internalType": "uint256",
              "name": "amount",
              "type": "uint256"
            },
            {
              "internalType": "uint256",
              "name": "filled",
              "type": "uint256"
            },
            {
              "internalType": "uint256",
              "name": "price",
              "type": "uint256"
            },
            {
              "internalType": "uint256",
              "name": "date",
              "type": "uint256"
            }
          ],
          "internalType": "struct Dex.Order[]",
          "name": "",
          "type": "tuple[]"
        }
      ],
      "stateMutability": "view",
      "type": "function",
      "constant": true
    },
    {
      "inputs": [],
      "name": "getTokens",
      "outputs": [
        {
          "components": [
            {
              "internalType": "bytes32",
              "name": "ticker",
              "type": "bytes32"
            },
            {
              "internalType": "address",
              "name": "tokenAddress",
              "type": "address"
            }
          ],
          "internalType": "struct Dex.Token[]",
          "name": "",
          "type": "tuple[]"
        }
      ],
      "stateMutability": "view",
      "type": "function",
      "constant": true
    },
    {
      "inputs": [
        {
          "internalType": "bytes32",
          "name": "ticker",
          "type": "bytes32"
        },
        {
          "internalType": "address",
          "name": "tokenAddress",
          "type": "address"
        }
      ],
      "name": "addToken",
      "outputs": [],
      "stateMutability": "nonpayable",
      "type": "function"
    },
    {
      "inputs": [
        {
          "internalType": "uint256",
          "name": "amount",
          "type": "uint256"
        },
        {
          "internalType": "bytes32",
          "name": "ticker",
          "type": "bytes32"
        }
      ],
      "name": "deposit",
      "outputs": [],
      "stateMutability": "nonpayable",
      "type": "function"
    },
    {
      "inputs": [
        {
          "internalType": "uint256",
          "name": "amount",
          "type": "uint256"
        },
        {
          "internalType": "bytes32",
          "name": "ticker",
          "type": "bytes32"
        }
      ],
      "name": "withdraw",
      "outputs": [],
      "stateMutability": "nonpayable",
      "type": "function"
    },
    {
      "inputs": [
        {
          "internalType": "bytes32",
          "name": "ticker",
          "type": "bytes32"
        },
        {
          "internalType": "uint256",
          "name": "amount",
          "type": "uint256"
        },
        {
          "internalType": "uint256",
          "name": "price",
          "type": "uint256"
        },
        {
          "internalType": "enum Dex.Side",
          "name": "side",
          "type": "uint8"
        }
      ],
      "name": "createLimitOrder",
      "outputs": [],
      "stateMutability": "nonpayable",
      "type": "function"
    },
    {
      "inputs": [
        {
          "internalType": "bytes32",
          "name": "ticker",
          "type": "bytes32"
        },
        {
          "internalType": "uint256",
          "name": "amount",
          "type": "uint256"
        },
        {
          "internalType": "enum Dex.Side",
          "name": "side",
          "type": "uint8"
        }
      ],
      "name": "createMarketOrder",
      "outputs": [],
      "stateMutability": "nonpayable",
      "type": "function"
    }
  ],
  "bytecode": "0x608060405234801561001057600080fd5b5033600460006101000a81548173ffffffffffffffffffffffffffffffffffffffff021916908373ffffffffffffffffffffffffffffffffffffffff160217905550613e22806100616000396000f3fe608060405234801561001057600080fd5b50600436106100ea5760003560e01c80639776aacf1161008c578063aa6ca80811610066578063aa6ca80814610277578063c9630cb014610295578063d9c0c950146102b1578063f851a440146102cd576100ea565b80639776aacf1461020f5780639ead72221461022b578063a8d2021a1461025b576100ea565b806372ce957e116100c857806372ce957e146101745780637f2c6246146101a4578063813ad083146101c0578063904194a3146101de576100ea565b80630bb431b6146100ef5780632a58b3301461012657806346e9658b14610144575b600080fd5b61010960048036038101906101049190613341565b6102eb565b60405161011d9897969594939291906139ec565b60405180910390f35b61012e61038a565b60405161013b91906139d1565b60405180910390f35b61015e600480360381019061015991906132b6565b610390565b60405161016b9190613889565b60405180910390f35b61018e600480360381019061018991906131ec565b610566565b60405161019b91906139d1565b60405180910390f35b6101be60048036038101906101b991906132f2565b61058b565b005b6101c8611c90565b6040516101d591906139d1565b60405180910390f35b6101f860048036038101906101f39190613251565b611c96565b6040516102069291906138e8565b60405180910390f35b6102296004803603810190610224919061327a565b611cda565b005b610245600480360381019061024091906133f3565b611e28565b60405161025291906138cd565b60405180910390f35b6102756004803603810190610270919061341c565b611e4c565b005b61027f612104565b60405161028c91906138ab565b60405180910390f35b6102af60048036038101906102aa919061341c565b6122f5565b005b6102cb60048036038101906102c69190613390565b61251c565b005b6102d56130e8565b6040516102e2919061380e565b60405180910390f35b6003602052826000526040600020602052816000526040600020818154811061031357600080fd5b906000526020600020906007020160009250925050508060000154908060010160009054906101000a900473ffffffffffffffffffffffffffffffffffffffff16908060010160149054906101000a900460ff16908060020154908060030154908060040154908060050154908060060154905088565b60055481565b60606003600084815260200190815260200160002060008360018111156103e0577f4e487b7100000000000000000000000000000000000000000000000000000000600052602160045260246000fd5b8152602001908152602001600020805480602002602001604051908101604052809291908181526020016000905b8282101561055a578382906000526020600020906007020160405180610100016040529081600082015481526020016001820160009054906101000a900473ffffffffffffffffffffffffffffffffffffffff1673ffffffffffffffffffffffffffffffffffffffff1673ffffffffffffffffffffffffffffffffffffffff1681526020016001820160149054906101000a900460ff1660018111156104dd577f4e487b7100000000000000000000000000000000000000000000000000000000600052602160045260246000fd5b6001811115610515577f4e487b7100000000000000000000000000000000000000000000000000000000600052602160045260246000fd5b8152602001600282015481526020016003820154815260200160048201548152602001600582015481526020016006820154815250508152602001906001019061040e565b50505050905092915050565b6002602052816000526040600020602052806000526040600020600091509150505481565b82600073ffffffffffffffffffffffffffffffffffffffff1660008083815260200190815260200160002060010160009054906101000a900473ffffffffffffffffffffffffffffffffffffffff1673ffffffffffffffffffffffffffffffffffffffff161415610631576040517f08c379a0000000000000000000000000000000000000000000000000000000008152600401610628906139b1565b60405180910390fd5b837f4441490000000000000000000000000000000000000000000000000000000000811415610695576040517f08c379a000000000000000000000000000000000000000000000000000000000815260040161068c90613951565b60405180910390fd5b6001808111156106ce577f4e487b7100000000000000000000000000000000000000000000000000000000600052602160045260246000fd5b836001811115610707577f4e487b7100000000000000000000000000000000000000000000000000000000600052602160045260246000fd5b14156107a15783600260003373ffffffffffffffffffffffffffffffffffffffff1673ffffffffffffffffffffffffffffffffffffffff16815260200190815260200160002060008781526020019081526020016000205410156107a0576040517f08c379a000000000000000000000000000000000000000000000000000000000815260040161079790613971565b60405180910390fd5b5b60006003600087815260200190815260200160002060008060018111156107f1577f4e487b7100000000000000000000000000000000000000000000000000000000600052602160045260246000fd5b86600181111561082a577f4e487b7100000000000000000000000000000000000000000000000000000000600052602160045260246000fd5b14610836576000610839565b60015b6001811115610871577f4e487b7100000000000000000000000000000000000000000000000000000000600052602160045260246000fd5b815260200190815260200160002090506000808690505b82805490508210801561089b5750600081115b156119335760006109498484815481106108de577f4e487b7100000000000000000000000000000000000000000000000000000000600052603260045260246000fd5b906000526020600020906007020160040154858581548110610929577f4e487b7100000000000000000000000000000000000000000000000000000000600052603260045260246000fd5b90600052602060002090600702016003015461310e90919063ffffffff16565b9050600081831161095a578261095c565b815b9050610971818461310e90919063ffffffff16565b92506109d0818686815481106109b0577f4e487b7100000000000000000000000000000000000000000000000000000000600052603260045260246000fd5b90600052602060002090600702016004015461312490919063ffffffff16565b858581548110610a09577f4e487b7100000000000000000000000000000000000000000000000000000000600052603260045260246000fd5b9060005260206000209060070201600401819055503373ffffffffffffffffffffffffffffffffffffffff16858581548110610a6e577f4e487b7100000000000000000000000000000000000000000000000000000000600052603260045260246000fd5b906000526020600020906007020160010160009054906101000a900473ffffffffffffffffffffffffffffffffffffffff1673ffffffffffffffffffffffffffffffffffffffff168b7fdb0c486e680ba8026643e6a85f8d157b5e7bcd4b32b54d564542570a9eb20416600654898981548110610b14577f4e487b7100000000000000000000000000000000000000000000000000000000600052603260045260246000fd5b906000526020600020906007020160000154868b8b81548110610b60577f4e487b7100000000000000000000000000000000000000000000000000000000600052603260045260246000fd5b90600052602060002090600702016005015442604051610b84959493929190613a6a565b60405180910390a4600180811115610bc5577f4e487b7100000000000000000000000000000000000000000000000000000000600052602160045260246000fd5b886001811115610bfe577f4e487b7100000000000000000000000000000000000000000000000000000000600052602160045260246000fd5b14156111c157610c6781600260003373ffffffffffffffffffffffffffffffffffffffff1673ffffffffffffffffffffffffffffffffffffffff16815260200190815260200160002060008d81526020019081526020016000205461310e90919063ffffffff16565b600260003373ffffffffffffffffffffffffffffffffffffffff1673ffffffffffffffffffffffffffffffffffffffff16815260200190815260200160002060008c815260200190815260200160002081905550610d9a610d1b868681548110610cfa577f4e487b7100000000000000000000000000000000000000000000000000000000600052603260045260246000fd5b9060005260206000209060070201600501548361313a90919063ffffffff16565b600260003373ffffffffffffffffffffffffffffffffffffffff1673ffffffffffffffffffffffffffffffffffffffff16815260200190815260200160002060007f444149000000000000000000000000000000000000000000000000000000000081526020019081526020016000205461312490919063ffffffff16565b600260003373ffffffffffffffffffffffffffffffffffffffff1673ffffffffffffffffffffffffffffffffffffffff16815260200190815260200160002060007f4441490000000000000000000000000000000000000000000000000000000000815260200190815260200160002081905550610edb8160026000888881548110610e4f577f4e487b7100000000000000000000000000000000000000000000000000000000600052603260045260246000fd5b906000526020600020906007020160010160009054906101000a900473ffffffffffffffffffffffffffffffffffffffff1673ffffffffffffffffffffffffffffffffffffffff1673ffffffffffffffffffffffffffffffffffffffff16815260200190815260200160002060008d81526020019081526020016000205461312490919063ffffffff16565b60026000878781548110610f18577f4e487b7100000000000000000000000000000000000000000000000000000000600052603260045260246000fd5b906000526020600020906007020160010160009054906101000a900473ffffffffffffffffffffffffffffffffffffffff1673ffffffffffffffffffffffffffffffffffffffff1673ffffffffffffffffffffffffffffffffffffffff16815260200190815260200160002060008c8152602001908152602001600020819055506110e2610ff9868681548110610fd8577f4e487b7100000000000000000000000000000000000000000000000000000000600052603260045260246000fd5b9060005260206000209060070201600501548361313a90919063ffffffff16565b60026000888881548110611036577f4e487b7100000000000000000000000000000000000000000000000000000000600052603260045260246000fd5b906000526020600020906007020160010160009054906101000a900473ffffffffffffffffffffffffffffffffffffffff1673ffffffffffffffffffffffffffffffffffffffff1673ffffffffffffffffffffffffffffffffffffffff16815260200190815260200160002060007f444149000000000000000000000000000000000000000000000000000000000081526020019081526020016000205461310e90919063ffffffff16565b6002600087878154811061111f577f4e487b7100000000000000000000000000000000000000000000000000000000600052603260045260246000fd5b906000526020600020906007020160010160009054906101000a900473ffffffffffffffffffffffffffffffffffffffff1673ffffffffffffffffffffffffffffffffffffffff1673ffffffffffffffffffffffffffffffffffffffff16815260200190815260200160002060007f44414900000000000000000000000000000000000000000000000000000000008152602001908152602001600020819055505b600060018111156111fb577f4e487b7100000000000000000000000000000000000000000000000000000000600052602160045260246000fd5b886001811115611234577f4e487b7100000000000000000000000000000000000000000000000000000000600052602160045260246000fd5b141561190657611297858581548110611276577f4e487b7100000000000000000000000000000000000000000000000000000000600052603260045260246000fd5b9060005260206000209060070201600501548261313a90919063ffffffff16565b600260003373ffffffffffffffffffffffffffffffffffffffff1673ffffffffffffffffffffffffffffffffffffffff16815260200190815260200160002060007f44414900000000000000000000000000000000000000000000000000000000008152602001908152602001600020541015611349576040517f08c379a000000000000000000000000000000000000000000000000000000000815260040161134090613991565b60405180910390fd5b6113ac81600260003373ffffffffffffffffffffffffffffffffffffffff1673ffffffffffffffffffffffffffffffffffffffff16815260200190815260200160002060008d81526020019081526020016000205461312490919063ffffffff16565b600260003373ffffffffffffffffffffffffffffffffffffffff1673ffffffffffffffffffffffffffffffffffffffff16815260200190815260200160002060008c8152602001908152602001600020819055506114df61146086868154811061143f577f4e487b7100000000000000000000000000000000000000000000000000000000600052603260045260246000fd5b9060005260206000209060070201600501548361313a90919063ffffffff16565b600260003373ffffffffffffffffffffffffffffffffffffffff1673ffffffffffffffffffffffffffffffffffffffff16815260200190815260200160002060007f444149000000000000000000000000000000000000000000000000000000000081526020019081526020016000205461310e90919063ffffffff16565b600260003373ffffffffffffffffffffffffffffffffffffffff1673ffffffffffffffffffffffffffffffffffffffff16815260200190815260200160002060007f44414900000000000000000000000000000000000000000000000000000000008152602001908152602001600020819055506116208160026000888881548110611594577f4e487b7100000000000000000000000000000000000000000000000000000000600052603260045260246000fd5b906000526020600020906007020160010160009054906101000a900473ffffffffffffffffffffffffffffffffffffffff1673ffffffffffffffffffffffffffffffffffffffff1673ffffffffffffffffffffffffffffffffffffffff16815260200190815260200160002060008d81526020019081526020016000205461310e90919063ffffffff16565b6002600087878154811061165d577f4e487b7100000000000000000000000000000000000000000000000000000000600052603260045260246000fd5b906000526020600020906007020160010160009054906101000a900473ffffffffffffffffffffffffffffffffffffffff1673ffffffffffffffffffffffffffffffffffffffff1673ffffffffffffffffffffffffffffffffffffffff16815260200190815260200160002060008c81526020019081526020016000208190555061182761173e86868154811061171d577f4e487b7100000000000000000000000000000000000000000000000000000000600052603260045260246000fd5b9060005260206000209060070201600501548361313a90919063ffffffff16565b6002600088888154811061177b577f4e487b7100000000000000000000000000000000000000000000000000000000600052603260045260246000fd5b906000526020600020906007020160010160009054906101000a900473ffffffffffffffffffffffffffffffffffffffff1673ffffffffffffffffffffffffffffffffffffffff1673ffffffffffffffffffffffffffffffffffffffff16815260200190815260200160002060007f444149000000000000000000000000000000000000000000000000000000000081526020019081526020016000205461312490919063ffffffff16565b60026000878781548110611864577f4e487b7100000000000000000000000000000000000000000000000000000000600052603260045260246000fd5b906000526020600020906007020160010160009054906101000a900473ffffffffffffffffffffffffffffffffffffffff1673ffffffffffffffffffffffffffffffffffffffff1673ffffffffffffffffffffffffffffffffffffffff16815260200190815260200160002060007f44414900000000000000000000000000000000000000000000000000000000008152602001908152602001600020819055505b6006600081548092919061191990613cc5565b9190505550838061192990613cc5565b9450505050610888565b600091505b8280549050821080156119de575082828154811061197f577f4e487b7100000000000000000000000000000000000000000000000000000000600052603260045260246000fd5b9060005260206000209060070201600301548383815481106119ca577f4e487b7100000000000000000000000000000000000000000000000000000000600052603260045260246000fd5b906000526020600020906007020160040154145b15611c865760008290505b600184805490506119fa9190613bf0565b811015611bb75783600182611a0f9190613b40565b81548110611a46577f4e487b7100000000000000000000000000000000000000000000000000000000600052603260045260246000fd5b9060005260206000209060070201848281548110611a8d577f4e487b7100000000000000000000000000000000000000000000000000000000600052603260045260246000fd5b9060005260206000209060070201600082015481600001556001820160009054906101000a900473ffffffffffffffffffffffffffffffffffffffff168160010160006101000a81548173ffffffffffffffffffffffffffffffffffffffff021916908373ffffffffffffffffffffffffffffffffffffffff1602179055506001820160149054906101000a900460ff168160010160146101000a81548160ff02191690836001811115611b6a577f4e487b7100000000000000000000000000000000000000000000000000000000600052602160045260246000fd5b021790555060028201548160020155600382015481600301556004820154816004015560058201548160050155600682015481600601559050508080611baf90613cc5565b9150506119e9565b5082805480611bef577f4e487b7100000000000000000000000000000000000000000000000000000000600052603160045260246000fd5b60019003818190600052602060002090600702016000808201600090556001820160006101000a81549073ffffffffffffffffffffffffffffffffffffffff02191690556001820160146101000a81549060ff021916905560028201600090556003820160009055600482016000905560058201600090556006820160009055505090558180611c7e90613cc5565b925050611938565b5050505050505050565b60065481565b60006020528060005260406000206000915090508060000154908060010160009054906101000a900473ffffffffffffffffffffffffffffffffffffffff16905082565b600460009054906101000a900473ffffffffffffffffffffffffffffffffffffffff1673ffffffffffffffffffffffffffffffffffffffff163373ffffffffffffffffffffffffffffffffffffffff1614611d6a576040517f08c379a0000000000000000000000000000000000000000000000000000000008152600401611d6190613931565b60405180910390fd5b60405180604001604052808381526020018273ffffffffffffffffffffffffffffffffffffffff168152506000808481526020019081526020016000206000820151816000015560208201518160010160006101000a81548173ffffffffffffffffffffffffffffffffffffffff021916908373ffffffffffffffffffffffffffffffffffffffff16021790555090505060018290806001815401808255809150506001900390600052602060002001600090919091909150555050565b60018181548110611e3857600080fd5b906000526020600020016000915090505481565b80600073ffffffffffffffffffffffffffffffffffffffff1660008083815260200190815260200160002060010160009054906101000a900473ffffffffffffffffffffffffffffffffffffffff1673ffffffffffffffffffffffffffffffffffffffff161415611ef2576040517f08c379a0000000000000000000000000000000000000000000000000000000008152600401611ee9906139b1565b60405180910390fd5b82600260003373ffffffffffffffffffffffffffffffffffffffff1673ffffffffffffffffffffffffffffffffffffffff1681526020019081526020016000206000848152602001908152602001600020541015611f85576040517f08c379a0000000000000000000000000000000000000000000000000000000008152600401611f7c90613911565b60405180910390fd5b611fe883600260003373ffffffffffffffffffffffffffffffffffffffff1673ffffffffffffffffffffffffffffffffffffffff16815260200190815260200160002060008581526020019081526020016000205461310e90919063ffffffff16565b600260003373ffffffffffffffffffffffffffffffffffffffff1673ffffffffffffffffffffffffffffffffffffffff16815260200190815260200160002060008481526020019081526020016000208190555060008083815260200190815260200160002060010160009054906101000a900473ffffffffffffffffffffffffffffffffffffffff1673ffffffffffffffffffffffffffffffffffffffff1663a9059cbb33856040518363ffffffff1660e01b81526004016120ac929190613860565b602060405180830381600087803b1580156120c657600080fd5b505af11580156120da573d6000803e3d6000fd5b505050506040513d601f19601f820116820180604052508101906120fe9190613228565b50505050565b6060600060018054905067ffffffffffffffff81111561214d577f4e487b7100000000000000000000000000000000000000000000000000000000600052604160045260246000fd5b60405190808252806020026020018201604052801561218657816020015b612173613150565b81526020019060019003908161216b5790505b50905060005b6001805490508110156122ed576040518060400160405280600080600185815481106121e1577f4e487b7100000000000000000000000000000000000000000000000000000000600052603260045260246000fd5b9060005260206000200154815260200190815260200160002060000154815260200160008060018581548110612240577f4e487b7100000000000000000000000000000000000000000000000000000000600052603260045260246000fd5b9060005260206000200154815260200190815260200160002060010160009054906101000a900473ffffffffffffffffffffffffffffffffffffffff1673ffffffffffffffffffffffffffffffffffffffff168152508282815181106122cf577f4e487b7100000000000000000000000000000000000000000000000000000000600052603260045260246000fd5b602002602001018190525080806122e590613cc5565b91505061218c565b508091505090565b80600073ffffffffffffffffffffffffffffffffffffffff1660008083815260200190815260200160002060010160009054906101000a900473ffffffffffffffffffffffffffffffffffffffff1673ffffffffffffffffffffffffffffffffffffffff16141561239b576040517f08c379a0000000000000000000000000000000000000000000000000000000008152600401612392906139b1565b60405180910390fd5b60008083815260200190815260200160002060010160009054906101000a900473ffffffffffffffffffffffffffffffffffffffff1673ffffffffffffffffffffffffffffffffffffffff166323b872dd3330866040518463ffffffff1660e01b815260040161240d93929190613829565b602060405180830381600087803b15801561242757600080fd5b505af115801561243b573d6000803e3d6000fd5b505050506040513d601f19601f8201168201806040525081019061245f9190613228565b506124c383600260003373ffffffffffffffffffffffffffffffffffffffff1673ffffffffffffffffffffffffffffffffffffffff16815260200190815260200160002060008581526020019081526020016000205461312490919063ffffffff16565b600260003373ffffffffffffffffffffffffffffffffffffffff1673ffffffffffffffffffffffffffffffffffffffff168152602001908152602001600020600084815260200190815260200160002081905550505050565b83600073ffffffffffffffffffffffffffffffffffffffff1660008083815260200190815260200160002060010160009054906101000a900473ffffffffffffffffffffffffffffffffffffffff1673ffffffffffffffffffffffffffffffffffffffff1614156125c2576040517f08c379a00000000000000000000000000000000000000000000000000000000081526004016125b9906139b1565b60405180910390fd5b847f4441490000000000000000000000000000000000000000000000000000000000811415612626576040517f08c379a000000000000000000000000000000000000000000000000000000000815260040161261d90613951565b60405180910390fd5b60018081111561265f577f4e487b7100000000000000000000000000000000000000000000000000000000600052602160045260246000fd5b836001811115612698577f4e487b7100000000000000000000000000000000000000000000000000000000600052602160045260246000fd5b14156127365784600260003373ffffffffffffffffffffffffffffffffffffffff1673ffffffffffffffffffffffffffffffffffffffff1681526020019081526020016000206000888152602001908152602001600020541015612731576040517f08c379a000000000000000000000000000000000000000000000000000000000815260040161272890613971565b60405180910390fd5b6127fc565b612749848661313a90919063ffffffff16565b600260003373ffffffffffffffffffffffffffffffffffffffff1673ffffffffffffffffffffffffffffffffffffffff16815260200190815260200160002060007f444149000000000000000000000000000000000000000000000000000000000081526020019081526020016000205410156127fb576040517f08c379a00000000000000000000000000000000000000000000000000000000081526004016127f290613991565b60405180910390fd5b5b600060036000888152602001908152602001600020600085600181111561284c577f4e487b7100000000000000000000000000000000000000000000000000000000600052602160045260246000fd5b815260200190815260200160002090508060405180610100016040528060055481526020013373ffffffffffffffffffffffffffffffffffffffff1681526020018660018111156128c6577f4e487b7100000000000000000000000000000000000000000000000000000000600052602160045260246000fd5b8152602001898152602001888152602001600081526020018781526020014281525090806001815401808255809150506001900390600052602060002090600702016000909190919091506000820151816000015560208201518160010160006101000a81548173ffffffffffffffffffffffffffffffffffffffff021916908373ffffffffffffffffffffffffffffffffffffffff16021790555060408201518160010160146101000a81548160ff021916908360018111156129b3577f4e487b7100000000000000000000000000000000000000000000000000000000600052602160045260246000fd5b0217905550606082015181600201556080820151816003015560a0820151816004015560c0820151816005015560e082015181600601555050600080828054905011612a00576000612a12565b60018280549050612a119190613bf0565b5b90505b60008111156130c65760006001811115612a58577f4e487b7100000000000000000000000000000000000000000000000000000000600052602160045260246000fd5b856001811115612a91577f4e487b7100000000000000000000000000000000000000000000000000000000600052602160045260246000fd5b148015612b3d5750818181548110612ad2577f4e487b7100000000000000000000000000000000000000000000000000000000600052603260045260246000fd5b90600052602060002090600702016005015482600183612af29190613bf0565b81548110612b29577f4e487b7100000000000000000000000000000000000000000000000000000000600052603260045260246000fd5b906000526020600020906007020160050154115b15612b47576130c6565b600180811115612b80577f4e487b7100000000000000000000000000000000000000000000000000000000600052602160045260246000fd5b856001811115612bb9577f4e487b7100000000000000000000000000000000000000000000000000000000600052602160045260246000fd5b148015612c655750818181548110612bfa577f4e487b7100000000000000000000000000000000000000000000000000000000600052603260045260246000fd5b90600052602060002090600702016005015482600183612c1a9190613bf0565b81548110612c51577f4e487b7100000000000000000000000000000000000000000000000000000000600052603260045260246000fd5b906000526020600020906007020160050154105b15612c6f576130c6565b600082600183612c7f9190613bf0565b81548110612cb6577f4e487b7100000000000000000000000000000000000000000000000000000000600052603260045260246000fd5b906000526020600020906007020160405180610100016040529081600082015481526020016001820160009054906101000a900473ffffffffffffffffffffffffffffffffffffffff1673ffffffffffffffffffffffffffffffffffffffff1673ffffffffffffffffffffffffffffffffffffffff1681526020016001820160149054906101000a900460ff166001811115612d7b577f4e487b7100000000000000000000000000000000000000000000000000000000600052602160045260246000fd5b6001811115612db3577f4e487b7100000000000000000000000000000000000000000000000000000000600052602160045260246000fd5b8152602001600282015481526020016003820154815260200160048201548152602001600582015481526020016006820154815250509050828281548110612e24577f4e487b7100000000000000000000000000000000000000000000000000000000600052603260045260246000fd5b906000526020600020906007020183600184612e409190613bf0565b81548110612e77577f4e487b7100000000000000000000000000000000000000000000000000000000600052603260045260246000fd5b9060005260206000209060070201600082015481600001556001820160009054906101000a900473ffffffffffffffffffffffffffffffffffffffff168160010160006101000a81548173ffffffffffffffffffffffffffffffffffffffff021916908373ffffffffffffffffffffffffffffffffffffffff1602179055506001820160149054906101000a900460ff168160010160146101000a81548160ff02191690836001811115612f54577f4e487b7100000000000000000000000000000000000000000000000000000000600052602160045260246000fd5b0217905550600282015481600201556003820154816003015560048201548160040155600582015481600501556006820154816006015590505080838381548110612fc8577f4e487b7100000000000000000000000000000000000000000000000000000000600052603260045260246000fd5b90600052602060002090600702016000820151816000015560208201518160010160006101000a81548173ffffffffffffffffffffffffffffffffffffffff021916908373ffffffffffffffffffffffffffffffffffffffff16021790555060408201518160010160146101000a81548160ff02191690836001811115613078577f4e487b7100000000000000000000000000000000000000000000000000000000600052602160045260246000fd5b0217905550606082015181600201556080820151816003015560a0820151816004015560c0820151816005015560e0820151816006015590505081806130bd90613c9b565b92505050612a15565b600560008154809291906130d990613cc5565b91905055505050505050505050565b600460009054906101000a900473ffffffffffffffffffffffffffffffffffffffff1681565b6000818361311c9190613bf0565b905092915050565b600081836131329190613b40565b905092915050565b600081836131489190613b96565b905092915050565b604051806040016040528060008019168152602001600073ffffffffffffffffffffffffffffffffffffffff1681525090565b60008135905061319281613d80565b92915050565b6000815190506131a781613d97565b92915050565b6000813590506131bc81613dae565b92915050565b6000813590506131d181613dc5565b92915050565b6000813590506131e681613dd5565b92915050565b600080604083850312156131ff57600080fd5b600061320d85828601613183565b925050602061321e858286016131ad565b9150509250929050565b60006020828403121561323a57600080fd5b600061324884828501613198565b91505092915050565b60006020828403121561326357600080fd5b6000613271848285016131ad565b91505092915050565b6000806040838503121561328d57600080fd5b600061329b858286016131ad565b92505060206132ac85828601613183565b9150509250929050565b600080604083850312156132c957600080fd5b60006132d7858286016131ad565b92505060206132e8858286016131c2565b9150509250929050565b60008060006060848603121561330757600080fd5b6000613315868287016131ad565b9350506020613326868287016131d7565b9250506040613337868287016131c2565b9150509250925092565b60008060006060848603121561335657600080fd5b6000613364868287016131ad565b9350506020613375868287016131d7565b9250506040613386868287016131d7565b9150509250925092565b600080600080608085870312156133a657600080fd5b60006133b4878288016131ad565b94505060206133c5878288016131d7565b93505060406133d6878288016131d7565b92505060606133e7878288016131c2565b91505092959194509250565b60006020828403121561340557600080fd5b6000613413848285016131d7565b91505092915050565b6000806040838503121561342f57600080fd5b600061343d858286016131d7565b925050602061344e858286016131ad565b9150509250929050565b6000613464838361371f565b6101008301905092915050565b600061347d83836137c1565b60408301905092915050565b61349281613c24565b82525050565b6134a181613c24565b82525050565b60006134b282613add565b6134bc8185613b0d565b93506134c783613abd565b8060005b838110156134f85781516134df8882613458565b97506134ea83613af3565b9250506001810190506134cb565b5085935050505092915050565b600061351082613ae8565b61351a8185613b1e565b935061352583613acd565b8060005b8381101561355657815161353d8882613471565b975061354883613b00565b925050600181019050613529565b5085935050505092915050565b61356c81613c42565b82525050565b61357b81613c42565b82525050565b61358a81613c89565b82525050565b61359981613c89565b82525050565b60006135ac600f83613b2f565b91507f62616c616e636520746f6f206c6f7700000000000000000000000000000000006000830152602082019050919050565b60006135ec600a83613b2f565b91507f6f6e6c792061646d696e000000000000000000000000000000000000000000006000830152602082019050919050565b600061362c601083613b2f565b91507f63616e6e6f7420747261646520444149000000000000000000000000000000006000830152602082019050919050565b600061366c601583613b2f565b91507f746f6b656e2062616c616e636520746f6f206c6f7700000000000000000000006000830152602082019050919050565b60006136ac601383613b2f565b91507f6461692062616c616e636520746f6f206c6f77000000000000000000000000006000830152602082019050919050565b60006136ec601983613b2f565b91507f7468697320746f6b656e20646f6573206e6f74206578697374000000000000006000830152602082019050919050565b6101008201600082015161373660008501826137f0565b5060208201516137496020850182613489565b50604082015161375c6040850182613581565b50606082015161376f6060850182613563565b50608082015161378260808501826137f0565b5060a082015161379560a08501826137f0565b5060c08201516137a860c08501826137f0565b5060e08201516137bb60e08501826137f0565b50505050565b6040820160008201516137d76000850182613563565b5060208201516137ea6020850182613489565b50505050565b6137f981613c7f565b82525050565b61380881613c7f565b82525050565b60006020820190506138236000830184613498565b92915050565b600060608201905061383e6000830186613498565b61384b6020830185613498565b61385860408301846137ff565b949350505050565b60006040820190506138756000830185613498565b61388260208301846137ff565b9392505050565b600060208201905081810360008301526138a381846134a7565b905092915050565b600060208201905081810360008301526138c58184613505565b905092915050565b60006020820190506138e26000830184613572565b92915050565b60006040820190506138fd6000830185613572565b61390a6020830184613498565b9392505050565b6000602082019050818103600083015261392a8161359f565b9050919050565b6000602082019050818103600083015261394a816135df565b9050919050565b6000602082019050818103600083015261396a8161361f565b9050919050565b6000602082019050818103600083015261398a8161365f565b9050919050565b600060208201905081810360008301526139aa8161369f565b9050919050565b600060208201905081810360008301526139ca816136df565b9050919050565b60006020820190506139e660008301846137ff565b92915050565b600061010082019050613a02600083018b6137ff565b613a0f602083018a613498565b613a1c6040830189613590565b613a296060830188613572565b613a3660808301876137ff565b613a4360a08301866137ff565b613a5060c08301856137ff565b613a5d60e08301846137ff565b9998505050505050505050565b600060a082019050613a7f60008301886137ff565b613a8c60208301876137ff565b613a9960408301866137ff565b613aa660608301856137ff565b613ab360808301846137ff565b9695505050505050565b6000819050602082019050919050565b6000819050602082019050919050565b600081519050919050565b600081519050919050565b6000602082019050919050565b6000602082019050919050565b600082825260208201905092915050565b600082825260208201905092915050565b600082825260208201905092915050565b6000613b4b82613c7f565b9150613b5683613c7f565b9250827fffffffffffffffffffffffffffffffffffffffffffffffffffffffffffffffff03821115613b8b57613b8a613d0e565b5b828201905092915050565b6000613ba182613c7f565b9150613bac83613c7f565b9250817fffffffffffffffffffffffffffffffffffffffffffffffffffffffffffffffff0483118215151615613be557613be4613d0e565b5b828202905092915050565b6000613bfb82613c7f565b9150613c0683613c7f565b925082821015613c1957613c18613d0e565b5b828203905092915050565b6000613c2f82613c5f565b9050919050565b60008115159050919050565b6000819050919050565b6000819050613c5a82613d6c565b919050565b600073ffffffffffffffffffffffffffffffffffffffff82169050919050565b6000819050919050565b6000613c9482613c4c565b9050919050565b6000613ca682613c7f565b91506000821415613cba57613cb9613d0e565b5b600182039050919050565b6000613cd082613c7f565b91507fffffffffffffffffffffffffffffffffffffffffffffffffffffffffffffffff821415613d0357613d02613d0e565b5b600182019050919050565b7f4e487b7100000000000000000000000000000000000000000000000000000000600052601160045260246000fd5b7f4e487b7100000000000000000000000000000000000000000000000000000000600052602160045260246000fd5b60028110613d7d57613d7c613d3d565b5b50565b613d8981613c24565b8114613d9457600080fd5b50565b613da081613c36565b8114613dab57600080fd5b50565b613db781613c42565b8114613dc257600080fd5b50565b60028110613dd257600080fd5b50565b613dde81613c7f565b8114613de957600080fd5b5056fea2646970667358221220efa9a825d1443d6b23cabc247e1943ccab795a6aa0585948cc64b8fac1d70c6a64736f6c63430008000033",
  "immutableReferences": {},
  "source": "// SPDX-License-Identifier: MIT\npragma solidity >=0.6.3;\npragma experimental ABIEncoderV2;\n\nimport '@openzeppelin/contracts/token/ERC20/IERC20.sol';\nimport '@openzeppelin/contracts/utils/math/SafeMath.sol';\n\ncontract Dex {\n\n    using SafeMath for uint;\n       \n    enum Side {\n        BUY,\n        SELL\n    }\n    \n    struct Token {\n        bytes32 ticker;\n        address tokenAddress;\n    }\n    \n    struct Order {\n        uint id;\n        address trader;\n        Side side;\n        bytes32 ticker;\n        uint amount;\n        uint filled;\n        uint price;\n        uint date;\n    }\n    \n    mapping(bytes32 => Token) public tokens;\n    bytes32[] public tokenList;\n    mapping(address => mapping(bytes32 => uint)) public traderBalances;\n    mapping(bytes32 => mapping(uint => Order[])) public orderBook;\n    address public admin;\n    uint public nextOrderId;\n    uint public nextTradeId;\n    bytes32 constant DAI = bytes32('DAI');\n    \n    event NewTrade(\n        uint tradeId,\n        uint orderId,\n        bytes32 indexed ticker,\n        address indexed trader1,\n        address indexed trader2,\n        uint amount,\n        uint price,\n        uint date\n    );\n    \n    constructor() {\n        admin = msg.sender;\n    }\n\n    function getOrders(\n      bytes32 ticker, \n      Side side) \n      external \n      view\n      returns(Order[] memory) {\n      return orderBook[ticker][uint(side)];\n    }\n\n    function getTokens() \n      external \n      view \n      returns(Token[] memory) {\n      Token[] memory _tokens = new Token[](tokenList.length);\n      for (uint i = 0; i < tokenList.length; i++) {\n        _tokens[i] = Token(\n          tokens[tokenList[i]].ticker,\n          tokens[tokenList[i]].tokenAddress\n        );\n      }\n      return _tokens;\n    }\n    \n    function addToken(\n        bytes32 ticker,\n        address tokenAddress)\n        onlyAdmin()\n        external {\n        tokens[ticker] = Token(ticker, tokenAddress);\n        tokenList.push(ticker);\n    }\n    \n    function deposit(\n        uint amount,\n        bytes32 ticker)\n        tokenExist(ticker)\n        external {\n        IERC20(tokens[ticker].tokenAddress).transferFrom(\n            msg.sender,\n            address(this),\n            amount\n        );\n        traderBalances[msg.sender][ticker] = traderBalances[msg.sender][ticker].add(amount);\n    }\n    \n    function withdraw(\n        uint amount,\n        bytes32 ticker)\n        tokenExist(ticker)\n        external {\n        require(\n            traderBalances[msg.sender][ticker] >= amount,\n            'balance too low'\n        ); \n        traderBalances[msg.sender][ticker] = traderBalances[msg.sender][ticker].sub(amount);\n        IERC20(tokens[ticker].tokenAddress).transfer(msg.sender, amount);\n    }\n    \n    function createLimitOrder(\n        bytes32 ticker,\n        uint amount,\n        uint price,\n        Side side)\n        tokenExist(ticker)\n        tokenIsNotDai(ticker)\n        external {\n        if(side == Side.SELL) {\n            require(\n                traderBalances[msg.sender][ticker] >= amount, \n                'token balance too low'\n            );\n        } else {\n            require(\n                traderBalances[msg.sender][DAI] >= amount.mul(price),\n                'dai balance too low'\n            );\n        }\n        Order[] storage orders = orderBook[ticker][uint(side)];\n        orders.push(Order(\n            nextOrderId,\n            msg.sender,\n            side,\n            ticker,\n            amount,\n            0,\n            price,\n            block.timestamp \n        ));\n        \n        uint i = orders.length > 0 ? orders.length - 1 : 0;\n        while(i > 0) {\n            if(side == Side.BUY && orders[i - 1].price > orders[i].price) {\n                break;   \n            }\n            if(side == Side.SELL && orders[i - 1].price < orders[i].price) {\n                break;   \n            }\n            Order memory order = orders[i - 1];\n            orders[i - 1] = orders[i];\n            orders[i] = order;\n            i--;\n        }\n        nextOrderId++;\n    }\n    \n    function createMarketOrder(\n        bytes32 ticker,\n        uint amount,\n        Side side)\n        tokenExist(ticker)\n        tokenIsNotDai(ticker)\n        external {\n        if(side == Side.SELL) {\n            require(\n                traderBalances[msg.sender][ticker] >= amount, \n                'token balance too low'\n            );\n        }\n        Order[] storage orders = orderBook[ticker][uint(side == Side.BUY ? Side.SELL : Side.BUY)];\n        uint i;\n        uint remaining = amount;\n        \n        while(i < orders.length && remaining > 0) {\n            uint available = orders[i].amount.sub(orders[i].filled);\n            uint matched = (remaining > available) ? available : remaining;\n            remaining = remaining.sub(matched);\n            orders[i].filled = orders[i].filled.add(matched);\n            emit NewTrade(\n                nextTradeId,\n                orders[i].id,\n                ticker,\n                orders[i].trader,\n                msg.sender,\n                matched,\n                orders[i].price,\n                block.timestamp\n            );\n            if(side == Side.SELL) {\n                traderBalances[msg.sender][ticker] = traderBalances[msg.sender][ticker].sub(matched);\n                traderBalances[msg.sender][DAI] = traderBalances[msg.sender][DAI].add(matched.mul(orders[i].price));\n                traderBalances[orders[i].trader][ticker] = traderBalances[orders[i].trader][ticker].add(matched);\n                traderBalances[orders[i].trader][DAI] = traderBalances[orders[i].trader][DAI].sub(matched.mul(orders[i].price));\n            }\n            if(side == Side.BUY) {\n                require(\n                    traderBalances[msg.sender][DAI] >= matched.mul(orders[i].price),\n                    'dai balance too low'\n                );\n                traderBalances[msg.sender][ticker] = traderBalances[msg.sender][ticker].add(matched);\n                traderBalances[msg.sender][DAI] = traderBalances[msg.sender][DAI].sub(matched.mul(orders[i].price));\n                traderBalances[orders[i].trader][ticker] = traderBalances[orders[i].trader][ticker].sub(matched);\n                traderBalances[orders[i].trader][DAI] = traderBalances[orders[i].trader][DAI].add(matched.mul(orders[i].price));\n            }\n            nextTradeId++;\n            i++;\n        }\n        \n        i = 0;\n        while(i < orders.length && orders[i].filled == orders[i].amount) {\n            for(uint j = i; j < orders.length - 1; j++ ) {\n                orders[j] = orders[j + 1];\n            }\n            orders.pop();\n            i++;\n        }\n    }\n   \n    modifier tokenIsNotDai(bytes32 ticker) {\n       require(ticker != DAI, 'cannot trade DAI');\n       _;\n    }     \n    \n    modifier tokenExist(bytes32 ticker) {\n        require(\n            tokens[ticker].tokenAddress != address(0),\n            'this token does not exist'\n        );\n        _;\n    }\n    \n    modifier onlyAdmin() {\n        require(msg.sender == admin, 'only admin');\n        _;\n    }\n}\n",
  "sourcePath": "/Users/alex/Documents/dex/contracts/Dex.sol",
  "compiler": {
    "name": "solc",
    "version": "0.8.0+commit.c7dfd78e.Emscripten.clang"
  },
  "schemaVersion": "3.4.1",
  "updatedAt": "2021-06-01T15:05:02.246Z",
  "networkType": "ethereum",
  "devdoc": {
    "kind": "dev",
    "methods": {},
    "version": 1
  },
  "userdoc": {
    "kind": "user",
    "methods": {},
    "version": 1
  }
}